{
  "contractName": "EthereumBank",
  "abi": [
    {
      "inputs": [],
      "stateMutability": "payable",
      "type": "constructor",
      "payable": true
    },
    {
      "anonymous": false,
      "inputs": [
        {
          "indexed": false,
          "internalType": "address",
          "name": "users",
          "type": "address"
        },
        {
          "indexed": false,
          "internalType": "bool",
          "name": "Approved",
          "type": "bool"
        }
      ],
      "name": "Approve",
      "type": "event"
    },
    {
      "anonymous": false,
      "inputs": [
        {
          "indexed": false,
          "internalType": "address",
          "name": "user",
          "type": "address"
        }
      ],
      "name": "Delete",
      "type": "event"
    },
    {
      "anonymous": false,
      "inputs": [
        {
          "indexed": false,
          "internalType": "address",
          "name": "user",
          "type": "address"
        },
        {
          "indexed": false,
          "internalType": "uint256",
          "name": "amount",
          "type": "uint256"
        }
      ],
      "name": "Deposit",
      "type": "event"
    },
    {
      "anonymous": false,
      "inputs": [
        {
          "indexed": false,
          "internalType": "address",
          "name": "sender",
          "type": "address"
        },
        {
          "indexed": false,
          "internalType": "address",
          "name": "reciever",
          "type": "address"
        },
        {
          "indexed": false,
          "internalType": "uint256",
          "name": "amount",
          "type": "uint256"
        }
      ],
      "name": "Transfer",
      "type": "event"
    },
    {
      "anonymous": false,
      "inputs": [
        {
          "indexed": false,
          "internalType": "address",
          "name": "reciever",
          "type": "address"
        },
        {
          "indexed": false,
          "internalType": "uint256",
          "name": "amount",
          "type": "uint256"
        }
      ],
      "name": "Withdraw",
      "type": "event"
    },
    {
      "inputs": [],
      "name": "counter",
      "outputs": [
        {
          "internalType": "uint256",
          "name": "",
          "type": "uint256"
        }
      ],
      "stateMutability": "view",
      "type": "function",
      "constant": true
    },
    {
      "inputs": [
        {
          "internalType": "address",
          "name": "CheckAddressBalance",
          "type": "address"
        }
      ],
      "name": "CheckBalanceOfUser",
      "outputs": [
        {
          "internalType": "uint256",
          "name": "",
          "type": "uint256"
        }
      ],
      "stateMutability": "view",
      "type": "function",
      "constant": true
    },
    {
      "inputs": [],
      "name": "CheckBanksBalance",
      "outputs": [
        {
          "internalType": "uint256",
          "name": "",
          "type": "uint256"
        }
      ],
      "stateMutability": "view",
      "type": "function",
      "constant": true
    },
    {
      "inputs": [
        {
          "internalType": "string",
          "name": "name",
          "type": "string"
        }
      ],
      "name": "RegisterUser",
      "outputs": [],
      "stateMutability": "payable",
      "type": "function",
      "payable": true
    },
    {
      "inputs": [
        {
          "internalType": "address",
          "name": "user_address",
          "type": "address"
        }
      ],
      "name": "Approved_Accounts",
      "outputs": [],
      "stateMutability": "nonpayable",
      "type": "function"
    },
    {
      "inputs": [],
      "name": "Approve_All_Users",
      "outputs": [],
      "stateMutability": "nonpayable",
      "type": "function"
    },
    {
      "inputs": [
        {
          "internalType": "address",
          "name": "ad",
          "type": "address"
        }
      ],
      "name": "check_Approval",
      "outputs": [
        {
          "internalType": "bool",
          "name": "",
          "type": "bool"
        }
      ],
      "stateMutability": "view",
      "type": "function",
      "constant": true
    },
    {
      "inputs": [
        {
          "internalType": "address",
          "name": "Reciever",
          "type": "address"
        },
        {
          "internalType": "uint256",
          "name": "amount",
          "type": "uint256"
        }
      ],
      "name": "TransferAmount",
      "outputs": [],
      "stateMutability": "payable",
      "type": "function",
      "payable": true
    },
    {
      "inputs": [
        {
          "internalType": "uint256",
          "name": "amount",
          "type": "uint256"
        }
      ],
      "name": "Deposit_Amount",
      "outputs": [],
      "stateMutability": "payable",
      "type": "function",
      "payable": true
    },
    {
      "inputs": [
        {
          "internalType": "uint256",
          "name": "amount",
          "type": "uint256"
        }
      ],
      "name": "Withdraw_Amount",
      "outputs": [],
      "stateMutability": "nonpayable",
      "type": "function"
    },
    {
      "inputs": [
        {
          "internalType": "address",
          "name": "ClosingAccountAddress",
          "type": "address"
        }
      ],
      "name": "ApplyToCloseAccount",
      "outputs": [],
      "stateMutability": "nonpayable",
      "type": "function"
    },
    {
      "inputs": [
        {
          "internalType": "address",
          "name": "ClosingAccountAddress",
          "type": "address"
        }
      ],
      "name": "ApproveTheCloseAccountRequest",
      "outputs": [],
      "stateMutability": "nonpayable",
      "type": "function"
    },
    {
      "inputs": [],
      "name": "showCloseAccountRequests",
      "outputs": [
        {
          "internalType": "address[]",
          "name": "",
          "type": "address[]"
        }
      ],
      "stateMutability": "view",
      "type": "function",
      "constant": true
    },
    {
      "inputs": [],
      "name": "Destroy_Contract",
      "outputs": [],
      "stateMutability": "nonpayable",
      "type": "function"
    }
  ],
  "bytecode": "0x6080604052336000806101000a81548173ffffffffffffffffffffffffffffffffffffffff021916908373ffffffffffffffffffffffffffffffffffffffff16021790555060006002819055507fe1fffcc4923d04b559f4d29a8bfc6cda04eb5b0d3c460751c2402c5c5cc9109c33346040516200007f929190620000ed565b60405180910390a16200011a565b600073ffffffffffffffffffffffffffffffffffffffff82169050919050565b6000620000ba826200008d565b9050919050565b620000cc81620000ad565b82525050565b6000819050919050565b620000e781620000d2565b82525050565b6000604082019050620001046000830185620000c1565b620001136020830184620000dc565b9392505050565b612431806200012a6000396000f3fe6080604052600436106100dd5760003560e01c806361bc221a1161007f578063bfba7df111610059578063bfba7df11461027e578063c4fb015014610295578063de99e004146102be578063ee058ec5146102da576100dd565b806361bc221a146101ed57806385792790146102185780638d63460714610255576100dd565b806348c415ec116100bb57806348c415ec14610140578063494c8eff1461015c57806353f206fc146101875780635a2ebf07146101b0576100dd565b8063211d29d9146100e257806335eec045146100fe57806348982fc014610115575b600080fd5b6100fc60048036038101906100f7919061166e565b610303565b005b34801561010a57600080fd5b50610113610443565b005b34801561012157600080fd5b5061012a61050a565b60405161013791906116aa565b60405180910390f35b61015a6004803603810190610155919061180b565b610512565b005b34801561016857600080fd5b506101716106f9565b60405161017e9190611944565b60405180910390f35b34801561019357600080fd5b506101ae60048036038101906101a99190611992565b610815565b005b3480156101bc57600080fd5b506101d760048036038101906101d29190611992565b610996565b6040516101e491906116aa565b60405180910390f35b3480156101f957600080fd5b50610202610ace565b60405161020f91906116aa565b60405180910390f35b34801561022457600080fd5b5061023f600480360381019061023a9190611992565b610ad4565b60405161024c91906119da565b60405180910390f35b34801561026157600080fd5b5061027c60048036038101906102779190611992565b610b2d565b005b34801561028a57600080fd5b50610293610ca0565b005b3480156102a157600080fd5b506102bc60048036038101906102b7919061166e565b610dec565b005b6102d860048036038101906102d391906119f5565b610fe3565b005b3480156102e657600080fd5b5061030160048036038101906102fc9190611992565b6111ef565b005b60011515600160003373ffffffffffffffffffffffffffffffffffffffff1673ffffffffffffffffffffffffffffffffffffffff16815260200190815260200160002060020160009054906101000a900460ff16151514610399576040517f08c379a000000000000000000000000000000000000000000000000000000000815260040161039090611ab8565b60405180910390fd5b670de0b6b3a76400003410156103ae57600080fd5b34600160003373ffffffffffffffffffffffffffffffffffffffff1673ffffffffffffffffffffffffffffffffffffffff16815260200190815260200160002060010160008282546104009190611b07565b925050819055507fe1fffcc4923d04b559f4d29a8bfc6cda04eb5b0d3c460751c2402c5c5cc9109c3382604051610438929190611b6c565b60405180910390a150565b60008054906101000a900473ffffffffffffffffffffffffffffffffffffffff1673ffffffffffffffffffffffffffffffffffffffff163373ffffffffffffffffffffffffffffffffffffffff16146104d1576040517f08c379a00000000000000000000000000000000000000000000000000000000081526004016104c890611c07565b60405180910390fd5b60008054906101000a900473ffffffffffffffffffffffffffffffffffffffff1673ffffffffffffffffffffffffffffffffffffffff16ff5b600047905090565b60003411610555576040517f08c379a000000000000000000000000000000000000000000000000000000000815260040161054c90611c99565b60405180910390fd5b600060405180608001604052808381526020013481526020016000151581526020016228de80426105869190611b07565b815250905080600160003373ffffffffffffffffffffffffffffffffffffffff1673ffffffffffffffffffffffffffffffffffffffff16815260200190815260200160002060008201518160000190805190602001906105e7929190611541565b506020820151816001015560408201518160020160006101000a81548160ff021916908315150217905550606082015181600301559050506003339080600181540180825580915050600190039060005260206000200160009091909190916101000a81548173ffffffffffffffffffffffffffffffffffffffff021916908373ffffffffffffffffffffffffffffffffffffffff160217905550600560025410156106f557600260008154809291906106a090611cb9565b9190505550671bc16d674ec80000600160003373ffffffffffffffffffffffffffffffffffffffff1673ffffffffffffffffffffffffffffffffffffffff168152602001908152602001600020600101819055505b5050565b606060008054906101000a900473ffffffffffffffffffffffffffffffffffffffff1673ffffffffffffffffffffffffffffffffffffffff163373ffffffffffffffffffffffffffffffffffffffff1614610789576040517f08c379a000000000000000000000000000000000000000000000000000000000815260040161078090611d74565b60405180910390fd5b600480548060200260200160405190810160405280929190818152602001828054801561080b57602002820191906000526020600020905b8160009054906101000a900473ffffffffffffffffffffffffffffffffffffffff1673ffffffffffffffffffffffffffffffffffffffff16815260200190600101908083116107c1575b5050505050905090565b60011515600160008373ffffffffffffffffffffffffffffffffffffffff1673ffffffffffffffffffffffffffffffffffffffff16815260200190815260200160002060020160009054906101000a900460ff161515146108ab576040517f08c379a00000000000000000000000000000000000000000000000000000000081526004016108a290611e06565b60405180910390fd5b600160008273ffffffffffffffffffffffffffffffffffffffff1673ffffffffffffffffffffffffffffffffffffffff16815260200190815260200160002060030154421015610930576040517f08c379a000000000000000000000000000000000000000000000000000000000815260040161092790611ebe565b60405180910390fd5b6004819080600181540180825580915050600190039060005260206000200160009091909190916101000a81548173ffffffffffffffffffffffffffffffffffffffff021916908373ffffffffffffffffffffffffffffffffffffffff16021790555050565b600060011515600160008473ffffffffffffffffffffffffffffffffffffffff1673ffffffffffffffffffffffffffffffffffffffff16815260200190815260200160002060020160009054906101000a900460ff1615151480610a45575060008054906101000a900473ffffffffffffffffffffffffffffffffffffffff1673ffffffffffffffffffffffffffffffffffffffff163373ffffffffffffffffffffffffffffffffffffffff16145b610a84576040517f08c379a0000000000000000000000000000000000000000000000000000000008152600401610a7b90611f50565b60405180910390fd5b600160008373ffffffffffffffffffffffffffffffffffffffff1673ffffffffffffffffffffffffffffffffffffffff168152602001908152602001600020600101549050919050565b60025481565b6000600160008373ffffffffffffffffffffffffffffffffffffffff1673ffffffffffffffffffffffffffffffffffffffff16815260200190815260200160002060020160009054906101000a900460ff169050919050565b60008054906101000a900473ffffffffffffffffffffffffffffffffffffffff1673ffffffffffffffffffffffffffffffffffffffff163373ffffffffffffffffffffffffffffffffffffffff1614610bbb576040517f08c379a0000000000000000000000000000000000000000000000000000000008152600401610bb290611fe2565b60405180910390fd5b60018060008373ffffffffffffffffffffffffffffffffffffffff1673ffffffffffffffffffffffffffffffffffffffff16815260200190815260200160002060020160006101000a81548160ff0219169083151502179055507f1f478f1e5aee36a892d86e821aba410dc0934cb0ebd0241dd75370833884545381600160008473ffffffffffffffffffffffffffffffffffffffff1673ffffffffffffffffffffffffffffffffffffffff16815260200190815260200160002060020160009054906101000a900460ff16604051610c95929190612002565b60405180910390a150565b60008054906101000a900473ffffffffffffffffffffffffffffffffffffffff1673ffffffffffffffffffffffffffffffffffffffff163373ffffffffffffffffffffffffffffffffffffffff1614610d2e576040517f08c379a0000000000000000000000000000000000000000000000000000000008152600401610d2590611fe2565b60405180910390fd5b60005b600380549050811015610de957600180600060038481548110610d5757610d5661202b565b5b9060005260206000200160009054906101000a900473ffffffffffffffffffffffffffffffffffffffff1673ffffffffffffffffffffffffffffffffffffffff1673ffffffffffffffffffffffffffffffffffffffff16815260200190815260200160002060020160006101000a81548160ff0219169083151502179055508080610de190611cb9565b915050610d31565b50565b60011515600160003373ffffffffffffffffffffffffffffffffffffffff1673ffffffffffffffffffffffffffffffffffffffff16815260200190815260200160002060020160009054906101000a900460ff16151514610e82576040517f08c379a0000000000000000000000000000000000000000000000000000000008152600401610e79906120cc565b60405180910390fd5b600160003373ffffffffffffffffffffffffffffffffffffffff1673ffffffffffffffffffffffffffffffffffffffff16815260200190815260200160002060010154811115610f07576040517f08c379a0000000000000000000000000000000000000000000000000000000008152600401610efe906121aa565b60405180910390fd5b80600160003373ffffffffffffffffffffffffffffffffffffffff1673ffffffffffffffffffffffffffffffffffffffff1681526020019081526020016000206001016000828254610f5991906121ca565b925050819055503373ffffffffffffffffffffffffffffffffffffffff166108fc829081150290604051600060405180830381858888f19350505050158015610fa6573d6000803e3d6000fd5b507f884edad9ce6fa2440d8a54cc123490eb96d2768479d49ff9c7366125a94243643382604051610fd8929190611b6c565b60405180910390a150565b600160003373ffffffffffffffffffffffffffffffffffffffff1673ffffffffffffffffffffffffffffffffffffffff16815260200190815260200160002060010154811115611068576040517f08c379a000000000000000000000000000000000000000000000000000000000815260040161105f90612296565b60405180910390fd5b60011515600160008473ffffffffffffffffffffffffffffffffffffffff1673ffffffffffffffffffffffffffffffffffffffff16815260200190815260200160002060020160009054906101000a900460ff161515146110fe576040517f08c379a00000000000000000000000000000000000000000000000000000000081526004016110f590612328565b60405180910390fd5b34600160003373ffffffffffffffffffffffffffffffffffffffff1673ffffffffffffffffffffffffffffffffffffffff168152602001908152602001600020600101600082825461115091906121ca565b9250508190555034600160008473ffffffffffffffffffffffffffffffffffffffff1673ffffffffffffffffffffffffffffffffffffffff16815260200190815260200160002060010160008282546111a99190611b07565b925050819055507fddf252ad1be2c89b69c2b068fc378daa952ba7f163c4a11628f55a4df523b3ef3383836040516111e393929190612348565b60405180910390a15050565b60008054906101000a900473ffffffffffffffffffffffffffffffffffffffff1673ffffffffffffffffffffffffffffffffffffffff163373ffffffffffffffffffffffffffffffffffffffff161461127d576040517f08c379a000000000000000000000000000000000000000000000000000000000815260040161127490611c07565b60405180910390fd5b8073ffffffffffffffffffffffffffffffffffffffff166108fc600160008473ffffffffffffffffffffffffffffffffffffffff1673ffffffffffffffffffffffffffffffffffffffff168152602001908152602001600020600101549081150290604051600060405180830381858888f19350505050158015611305573d6000803e3d6000fd5b507fddf252ad1be2c89b69c2b068fc378daa952ba7f163c4a11628f55a4df523b3ef3082600160008573ffffffffffffffffffffffffffffffffffffffff1673ffffffffffffffffffffffffffffffffffffffff1681526020019081526020016000206001015460405161137b93929190612348565b60405180910390a1600160008273ffffffffffffffffffffffffffffffffffffffff1673ffffffffffffffffffffffffffffffffffffffff168152602001908152602001600020600080820160006113d391906115c7565b60018201600090556002820160006101000a81549060ff0219169055600382016000905550506004600161140683611488565b61141091906121ca565b815481106114215761142061202b565b5b9060005260206000200160006101000a81549073ffffffffffffffffffffffffffffffffffffffff02191690557fd03a4dcdd2ef0422b2b46019327660d3a7421e1bf95d023845072c55c1f223b88160405161147d919061237f565b60405180910390a150565b600080600090505b600480549050811161153657600481815481106114b0576114af61202b565b5b9060005260206000200160009054906101000a900473ffffffffffffffffffffffffffffffffffffffff1673ffffffffffffffffffffffffffffffffffffffff168373ffffffffffffffffffffffffffffffffffffffff1614156115235760018161151b9190611b07565b91505061153c565b808061152e90611cb9565b915050611490565b50600090505b919050565b82805461154d906123c9565b90600052602060002090601f01602090048101928261156f57600085556115b6565b82601f1061158857805160ff19168380011785556115b6565b828001600101855582156115b6579182015b828111156115b557825182559160200191906001019061159a565b5b5090506115c39190611607565b5090565b5080546115d3906123c9565b6000825580601f106115e55750611604565b601f0160209004906000526020600020908101906116039190611607565b5b50565b5b80821115611620576000816000905550600101611608565b5090565b6000604051905090565b600080fd5b600080fd5b6000819050919050565b61164b81611638565b811461165657600080fd5b50565b60008135905061166881611642565b92915050565b6000602082840312156116845761168361162e565b5b600061169284828501611659565b91505092915050565b6116a481611638565b82525050565b60006020820190506116bf600083018461169b565b92915050565b600080fd5b600080fd5b6000601f19601f8301169050919050565b7f4e487b7100000000000000000000000000000000000000000000000000000000600052604160045260246000fd5b611718826116cf565b810181811067ffffffffffffffff82111715611737576117366116e0565b5b80604052505050565b600061174a611624565b9050611756828261170f565b919050565b600067ffffffffffffffff821115611776576117756116e0565b5b61177f826116cf565b9050602081019050919050565b82818337600083830152505050565b60006117ae6117a98461175b565b611740565b9050828152602081018484840111156117ca576117c96116ca565b5b6117d584828561178c565b509392505050565b600082601f8301126117f2576117f16116c5565b5b813561180284826020860161179b565b91505092915050565b6000602082840312156118215761182061162e565b5b600082013567ffffffffffffffff81111561183f5761183e611633565b5b61184b848285016117dd565b91505092915050565b600081519050919050565b600082825260208201905092915050565b6000819050602082019050919050565b600073ffffffffffffffffffffffffffffffffffffffff82169050919050565b60006118ab82611880565b9050919050565b6118bb816118a0565b82525050565b60006118cd83836118b2565b60208301905092915050565b6000602082019050919050565b60006118f182611854565b6118fb818561185f565b935061190683611870565b8060005b8381101561193757815161191e88826118c1565b9750611929836118d9565b92505060018101905061190a565b5085935050505092915050565b6000602082019050818103600083015261195e81846118e6565b905092915050565b61196f816118a0565b811461197a57600080fd5b50565b60008135905061198c81611966565b92915050565b6000602082840312156119a8576119a761162e565b5b60006119b68482850161197d565b91505092915050565b60008115159050919050565b6119d4816119bf565b82525050565b60006020820190506119ef60008301846119cb565b92915050565b60008060408385031215611a0c57611a0b61162e565b5b6000611a1a8582860161197d565b9250506020611a2b85828601611659565b9150509250929050565b600082825260208201905092915050565b7f20546865206465706f7369746572206d75737420626520616e20617070726f7660008201527f6564206d656d626572206f66207468652062616e6b0000000000000000000000602082015250565b6000611aa2603583611a35565b9150611aad82611a46565b604082019050919050565b60006020820190508181036000830152611ad181611a95565b9050919050565b7f4e487b7100000000000000000000000000000000000000000000000000000000600052601160045260246000fd5b6000611b1282611638565b9150611b1d83611638565b9250827fffffffffffffffffffffffffffffffffffffffffffffffffffffffffffffffff03821115611b5257611b51611ad8565b5b828201905092915050565b611b66816118a0565b82525050565b6000604082019050611b816000830185611b5d565b611b8e602083018461169b565b9392505050565b7f4f6e6c79206f776e65722063616e2063616c6c20746869732066756e6374696f60008201527f6e00000000000000000000000000000000000000000000000000000000000000602082015250565b6000611bf1602183611a35565b9150611bfc82611b95565b604082019050919050565b60006020820190508181036000830152611c2081611be4565b9050919050565b7f55736572206e65656420746f2070757420736f6d657468696e6720617320737460008201527f616b6520746f206f70656e20746865206163636f756e74000000000000000000602082015250565b6000611c83603783611a35565b9150611c8e82611c27565b604082019050919050565b60006020820190508181036000830152611cb281611c76565b9050919050565b6000611cc482611638565b91507fffffffffffffffffffffffffffffffffffffffffffffffffffffffffffffffff821415611cf757611cf6611ad8565b5b600182019050919050565b7f4f6e6c7920636f6e7472616374206f776e65722063616e20636865636b20746860008201527f6520636c6f736564206163636f756e7473206c69737400000000000000000000602082015250565b6000611d5e603683611a35565b9150611d6982611d02565b604082019050919050565b60006020820190508181036000830152611d8d81611d51565b9050919050565b7f4f6e6c79206163636f756e747320746861742061726520617070726f7665642060008201527f63616e2063616c6c20746869732066756e6374696f6e00000000000000000000602082015250565b6000611df0603683611a35565b9150611dfb82611d94565b604082019050919050565b60006020820190508181036000830152611e1f81611de3565b9050919050565b7f796f752063616e6e6f74206170706c7920746f20636c6f7365206163636f756e60008201527f74206265666f7265207468652031206d6f6e746820706572696f64206f66206960208201527f7473206372656174696f6e2e0000000000000000000000000000000000000000604082015250565b6000611ea8604c83611a35565b9150611eb382611e26565b606082019050919050565b60006020820190508181036000830152611ed781611e9b565b9050919050565b7f546865206163636f756e74206973206e6f7420617070726f766564206279207460008201527f68652062616e6b2773206f776e65722000000000000000000000000000000000602082015250565b6000611f3a603083611a35565b9150611f4582611ede565b604082019050919050565b60006020820190508181036000830152611f6981611f2d565b9050919050565b7f4f6e6c7920436f6e7472616374204f776e65722043616e20417070726f76652060008201527f7468652075736572730000000000000000000000000000000000000000000000602082015250565b6000611fcc602983611a35565b9150611fd782611f70565b604082019050919050565b60006020820190508181036000830152611ffb81611fbf565b9050919050565b60006040820190506120176000830185611b5d565b61202460208301846119cb565b9392505050565b7f4e487b7100000000000000000000000000000000000000000000000000000000600052603260045260246000fd5b7f205468652057697468647261776572206d75737420626520616e20617070726f60008201527f766564206d656d626572206f66207468652062616e6b00000000000000000000602082015250565b60006120b6603683611a35565b91506120c18261205a565b604082019050919050565b600060208201905081810360008301526120e5816120a9565b9050919050565b7f54686520616d6f756e74206265696e6720776974686472617765642073686f7560008201527f6c64206265206c657373207468616e206f7220657175616c20746f207468652060208201527f6163636f756e742062616c616e6365206f66207468652057697468647261776560408201527f7200000000000000000000000000000000000000000000000000000000000000606082015250565b6000612194606183611a35565b915061219f826120ec565b608082019050919050565b600060208201905081810360008301526121c381612187565b9050919050565b60006121d582611638565b91506121e083611638565b9250828210156121f3576121f2611ad8565b5b828203905092915050565b7f2054686520616d6f756e74206265696e67207472616e7366657265642073686f60008201527f756c64206265206c657373207468616e206f7220657175616c20746f2073656e60208201527f6465722773206163636f756e742062616c616e63650000000000000000000000604082015250565b6000612280605583611a35565b915061228b826121fe565b606082019050919050565b600060208201905081810360008301526122af81612273565b9050919050565b7f205468652052656369657665722073686f756c6420626520616e20617070726f60008201527f766564206d656d626572206f66207468652062616e6b00000000000000000000602082015250565b6000612312603683611a35565b915061231d826122b6565b604082019050919050565b6000602082019050818103600083015261234181612305565b9050919050565b600060608201905061235d6000830186611b5d565b61236a6020830185611b5d565b612377604083018461169b565b949350505050565b60006020820190506123946000830184611b5d565b92915050565b7f4e487b7100000000000000000000000000000000000000000000000000000000600052602260045260246000fd5b600060028204905060018216806123e157607f821691505b602082108114156123f5576123f461239a565b5b5091905056fea2646970667358221220dc0e5d02874c0053dbb72d33da1aa6a741063176413e4007dfcb720b2bc30d1564736f6c63430008090033",
  "immutableReferences": {},
  "source": "// SPDX-License-Identifier: MIT\npragma solidity ^0.8.9;\ncontract EthereumBank{\n    address private owner;\n    struct Users {\n       string Name;\n       uint balance;\n       bool isapproved;\n       uint timestamp;\n    }\n    mapping  (address => Users) private accounts;\n    uint public counter;\n    address [] private useraddresses; //dynamic array to store useraddresses\n    address [] private accountsClosedRequest; // dynamic array to store closed  request for useraddresses\n    event Deposit(address user , uint amount );\n    event Approve(address users, bool Approved);\n    event Transfer (address sender, address reciever, uint amount);\n    event Withdraw (address reciever, uint amount);\n    event Delete(address user);\n    constructor() payable {\n        // require( msg.value>= 50 ether, \"The Owner must have to deposit 50 ether or more to start the bank\");\n        owner = msg.sender;\n        counter=0;\n        emit Deposit ( msg.sender , msg.value);\n    }\n    // function to Check Balance of User\n    function CheckBalanceOfUser(address CheckAddressBalance) public view returns(uint)\n    {\n        require(accounts[CheckAddressBalance].isapproved == true || msg.sender==owner, \"The account is not approved by the bank's owner \");\n        return accounts[CheckAddressBalance].balance;\n    }\n    // return The balance of the Simple Bank contract\n    function CheckBanksBalance() public view returns (uint) {\n        return address(this).balance;\n    }\n    // User registering function\n    function RegisterUser (string memory name) public payable\n    {\n        require( msg.value > 0 ether,\"User need to put something as stake to open the account\");\n        Users memory newuser = Users( name, msg.value, false, block.timestamp+2678400);\n        accounts[msg.sender] = newuser;\n        useraddresses.push(payable(msg.sender));\n        if(counter < 5 )\n        {\n            counter++;\n            accounts[msg.sender].balance = 2 ether;\n        }\n    }\n    // approving user function\n    function Approved_Accounts (address user_address) public\n    {\n        require(msg.sender == owner,\"Only Contract Owner Can Approve the users\");\n        accounts[user_address].isapproved = true;\n        emit Approve(user_address, accounts[user_address].isapproved);\n    }\n    // function to Approve all users\n    function Approve_All_Users () public\n    {\n        require(msg.sender == owner,\"Only Contract Owner Can Approve the users\");\n        for(uint i=0; i< useraddresses.length;i++)\n        {\n            accounts[useraddresses[i]].isapproved = true;\n        }\n    }\n    // check approval function\n    function check_Approval (address ad) public view returns(bool)\n    {\n        return accounts[ad].isapproved;\n    }\n    //  Tranfer Amount function\n    function TransferAmount (address Reciever, uint amount) public payable\n    {\n        require (amount <= accounts[msg.sender].balance,\" The amount being transfered should be less than or equal to sender's account balance\");\n        require (accounts[Reciever].isapproved == true,\" The Reciever should be an approved member of the bank\" );\n        accounts[msg.sender].balance -= msg.value;\n        accounts[Reciever].balance += msg.value;\n        emit Transfer(msg.sender, Reciever, amount) ;\n    }\n    // function to Deposit_Amount in bank\n    function Deposit_Amount (uint amount) public payable\n    {\n        require(accounts[msg.sender].isapproved == true,\" The depositer must be an approved member of the bank\");\n        require( msg.value >= 1 ether );\n        accounts[msg.sender].balance += msg.value;\n        emit Deposit (msg.sender, amount);\n    }\n    // function to Withdraw_Amount from bank\n    function Withdraw_Amount (uint amount) public\n    {\n        require(accounts[msg.sender].isapproved == true,\" The Withdrawer must be an approved member of the bank\");\n        require( amount <= accounts[msg.sender].balance,\"The amount being withdrawed should be less than or equal to the account balance of the Withdrawer\");\n        accounts[msg.sender].balance -= amount;\n        payable(msg.sender).transfer(amount);\n        emit Withdraw (msg.sender, amount);\n    }\n    // function for applying accounts closing request\n     function ApplyToCloseAccount (address ClosingAccountAddress) public\n     {\n          require(accounts[ClosingAccountAddress].isapproved == true,\"Only accounts that are approved can call this function\");\n         require(block.timestamp >= accounts[ClosingAccountAddress].timestamp,\"you cannot apply to close account before the 1 month period of its creation.\");\n         accountsClosedRequest.push(ClosingAccountAddress);\n     }\n     // function to approve the closing account request\n     function ApproveTheCloseAccountRequest (address ClosingAccountAddress) public\n     {\n         require(msg.sender == owner, \"Only owner can call this function\");\n         payable(ClosingAccountAddress).transfer(accounts[ClosingAccountAddress].balance);\n         emit Transfer(address(this),ClosingAccountAddress,accounts[ClosingAccountAddress].balance);\n         delete accounts[ClosingAccountAddress];\n         delete accountsClosedRequest[ReturnIndexOfTheClosingAccount(ClosingAccountAddress)-1];\n         emit Delete(ClosingAccountAddress);\n     }\n     // function to return index of the closing account address\n     function ReturnIndexOfTheClosingAccount(address ClosingAccountAddress) internal  view returns(uint)\n     {\n        for(uint i=0; i<=accountsClosedRequest.length; i++)\n        {\n            if (ClosingAccountAddress == accountsClosedRequest[i])\n            return i+1;\n        }\n        return 0;\n     }\n     function showCloseAccountRequests() view public returns(address [] memory)\n     {\n         require(msg.sender == owner,\"Only contract owner can check the closed accounts list\");\n         return accountsClosedRequest;\n     }\n    // selfdestruct function\n    function Destroy_Contract () public {\n        require (msg.sender==owner,\"Only owner can call this function\");\n        selfdestruct(payable(owner));\n    }\n}// end of contract",
  "sourcePath": "/home/syed/Desktop/Truffle_test/contracts/EthereumBank.sol",
  "compiler": {
    "name": "solc",
    "version": "0.8.9+commit.e5eed63a.Emscripten.clang"
  },
  "schemaVersion": "3.4.3",
  "updatedAt": "2021-11-04T14:25:52.862Z",
  "networkType": "ethereum",
  "devdoc": {
    "kind": "dev",
    "methods": {},
    "version": 1
  },
  "userdoc": {
    "kind": "user",
    "methods": {},
    "version": 1
  }
}